{
  "_format": "hh-sol-artifact-1",
  "contractName": "NFTMarketplace",
  "sourceName": "contracts/NFTMarketplace.sol",
  "abi": [
    {
      "inputs": [],
      "stateMutability": "nonpayable",
      "type": "constructor"
    },
    {
      "anonymous": false,
      "inputs": [
        {
          "indexed": true,
          "internalType": "address",
          "name": "owner",
          "type": "address"
        },
        {
          "indexed": true,
          "internalType": "address",
          "name": "approved",
          "type": "address"
        },
        {
          "indexed": true,
          "internalType": "uint256",
          "name": "tokenId",
          "type": "uint256"
        }
      ],
      "name": "Approval",
      "type": "event"
    },
    {
      "anonymous": false,
      "inputs": [
        {
          "indexed": true,
          "internalType": "address",
          "name": "owner",
          "type": "address"
        },
        {
          "indexed": true,
          "internalType": "address",
          "name": "operator",
          "type": "address"
        },
        {
          "indexed": false,
          "internalType": "bool",
          "name": "approved",
          "type": "bool"
        }
      ],
      "name": "ApprovalForAll",
      "type": "event"
    },
    {
      "anonymous": false,
      "inputs": [
        {
          "indexed": false,
          "internalType": "uint256",
          "name": "_fromTokenId",
          "type": "uint256"
        },
        {
          "indexed": false,
          "internalType": "uint256",
          "name": "_toTokenId",
          "type": "uint256"
        }
      ],
      "name": "BatchMetadataUpdate",
      "type": "event"
    },
    {
      "anonymous": false,
      "inputs": [
        {
          "indexed": false,
          "internalType": "uint256",
          "name": "_tokenId",
          "type": "uint256"
        }
      ],
      "name": "MetadataUpdate",
      "type": "event"
    },
    {
      "anonymous": false,
      "inputs": [
        {
          "indexed": true,
          "internalType": "address",
          "name": "from",
          "type": "address"
        },
        {
          "indexed": true,
          "internalType": "address",
          "name": "to",
          "type": "address"
        },
        {
          "indexed": true,
          "internalType": "uint256",
          "name": "tokenId",
          "type": "uint256"
        }
      ],
      "name": "Transfer",
      "type": "event"
    },
    {
      "anonymous": false,
      "inputs": [
        {
          "indexed": true,
          "internalType": "uint256",
          "name": "tokenId",
          "type": "uint256"
        },
        {
          "indexed": false,
          "internalType": "address",
          "name": "seller",
          "type": "address"
        },
        {
          "indexed": false,
          "internalType": "address",
          "name": "owner",
          "type": "address"
        },
        {
          "indexed": false,
          "internalType": "uint256",
          "name": "price",
          "type": "uint256"
        },
        {
          "indexed": false,
          "internalType": "bool",
          "name": "sold",
          "type": "bool"
        }
      ],
      "name": "idMarketItemCreated",
      "type": "event"
    },
    {
      "inputs": [
        {
          "internalType": "address",
          "name": "to",
          "type": "address"
        },
        {
          "internalType": "uint256",
          "name": "tokenId",
          "type": "uint256"
        }
      ],
      "name": "approve",
      "outputs": [],
      "stateMutability": "nonpayable",
      "type": "function"
    },
    {
      "inputs": [
        {
          "internalType": "address",
          "name": "owner",
          "type": "address"
        }
      ],
      "name": "balanceOf",
      "outputs": [
        {
          "internalType": "uint256",
          "name": "",
          "type": "uint256"
        }
      ],
      "stateMutability": "view",
      "type": "function"
    },
    {
      "inputs": [
        {
          "internalType": "uint256",
          "name": "tokenId",
          "type": "uint256"
        }
      ],
      "name": "createMarketSale",
      "outputs": [],
      "stateMutability": "payable",
      "type": "function"
    },
    {
      "inputs": [
        {
          "internalType": "string",
          "name": "tokenURI",
          "type": "string"
        },
        {
          "internalType": "uint256",
          "name": "price",
          "type": "uint256"
        }
      ],
      "name": "createToken",
      "outputs": [
        {
          "internalType": "uint256",
          "name": "",
          "type": "uint256"
        }
      ],
      "stateMutability": "payable",
      "type": "function"
    },
    {
      "inputs": [],
      "name": "fetchItemsListed",
      "outputs": [
        {
          "components": [
            {
              "internalType": "uint256",
              "name": "tokenId",
              "type": "uint256"
            },
            {
              "internalType": "address payable",
              "name": "seller",
              "type": "address"
            },
            {
              "internalType": "address payable",
              "name": "owner",
              "type": "address"
            },
            {
              "internalType": "uint256",
              "name": "price",
              "type": "uint256"
            },
            {
              "internalType": "bool",
              "name": "sold",
              "type": "bool"
            }
          ],
          "internalType": "struct NFTMarketplace.MarketItem[]",
          "name": "",
          "type": "tuple[]"
        }
      ],
      "stateMutability": "view",
      "type": "function"
    },
    {
      "inputs": [],
      "name": "fetchMarketitems",
      "outputs": [
        {
          "components": [
            {
              "internalType": "uint256",
              "name": "tokenId",
              "type": "uint256"
            },
            {
              "internalType": "address payable",
              "name": "seller",
              "type": "address"
            },
            {
              "internalType": "address payable",
              "name": "owner",
              "type": "address"
            },
            {
              "internalType": "uint256",
              "name": "price",
              "type": "uint256"
            },
            {
              "internalType": "bool",
              "name": "sold",
              "type": "bool"
            }
          ],
          "internalType": "struct NFTMarketplace.MarketItem[]",
          "name": "",
          "type": "tuple[]"
        }
      ],
      "stateMutability": "view",
      "type": "function"
    },
    {
      "inputs": [],
      "name": "fetchMyNFT",
      "outputs": [
        {
          "components": [
            {
              "internalType": "uint256",
              "name": "tokenId",
              "type": "uint256"
            },
            {
              "internalType": "address payable",
              "name": "seller",
              "type": "address"
            },
            {
              "internalType": "address payable",
              "name": "owner",
              "type": "address"
            },
            {
              "internalType": "uint256",
              "name": "price",
              "type": "uint256"
            },
            {
              "internalType": "bool",
              "name": "sold",
              "type": "bool"
            }
          ],
          "internalType": "struct NFTMarketplace.MarketItem[]",
          "name": "",
          "type": "tuple[]"
        }
      ],
      "stateMutability": "view",
      "type": "function"
    },
    {
      "inputs": [
        {
          "internalType": "uint256",
          "name": "tokenId",
          "type": "uint256"
        }
      ],
      "name": "getApproved",
      "outputs": [
        {
          "internalType": "address",
          "name": "",
          "type": "address"
        }
      ],
      "stateMutability": "view",
      "type": "function"
    },
    {
      "inputs": [],
      "name": "getlisingPricr",
      "outputs": [
        {
          "internalType": "uint256",
          "name": "",
          "type": "uint256"
        }
      ],
      "stateMutability": "view",
      "type": "function"
    },
    {
      "inputs": [
        {
          "internalType": "address",
          "name": "owner",
          "type": "address"
        },
        {
          "internalType": "address",
          "name": "operator",
          "type": "address"
        }
      ],
      "name": "isApprovedForAll",
      "outputs": [
        {
          "internalType": "bool",
          "name": "",
          "type": "bool"
        }
      ],
      "stateMutability": "view",
      "type": "function"
    },
    {
      "inputs": [],
      "name": "name",
      "outputs": [
        {
          "internalType": "string",
          "name": "",
          "type": "string"
        }
      ],
      "stateMutability": "view",
      "type": "function"
    },
    {
      "inputs": [
        {
          "internalType": "uint256",
          "name": "tokenId",
          "type": "uint256"
        }
      ],
      "name": "ownerOf",
      "outputs": [
        {
          "internalType": "address",
          "name": "",
          "type": "address"
        }
      ],
      "stateMutability": "view",
      "type": "function"
    },
    {
      "inputs": [
        {
          "internalType": "uint256",
          "name": "tokenId",
          "type": "uint256"
        },
        {
          "internalType": "uint256",
          "name": "price",
          "type": "uint256"
        }
      ],
      "name": "reSellToken",
      "outputs": [],
      "stateMutability": "payable",
      "type": "function"
    },
    {
      "inputs": [
        {
          "internalType": "address",
          "name": "from",
          "type": "address"
        },
        {
          "internalType": "address",
          "name": "to",
          "type": "address"
        },
        {
          "internalType": "uint256",
          "name": "tokenId",
          "type": "uint256"
        }
      ],
      "name": "safeTransferFrom",
      "outputs": [],
      "stateMutability": "nonpayable",
      "type": "function"
    },
    {
      "inputs": [
        {
          "internalType": "address",
          "name": "from",
          "type": "address"
        },
        {
          "internalType": "address",
          "name": "to",
          "type": "address"
        },
        {
          "internalType": "uint256",
          "name": "tokenId",
          "type": "uint256"
        },
        {
          "internalType": "bytes",
          "name": "data",
          "type": "bytes"
        }
      ],
      "name": "safeTransferFrom",
      "outputs": [],
      "stateMutability": "nonpayable",
      "type": "function"
    },
    {
      "inputs": [
        {
          "internalType": "address",
          "name": "operator",
          "type": "address"
        },
        {
          "internalType": "bool",
          "name": "approved",
          "type": "bool"
        }
      ],
      "name": "setApprovalForAll",
      "outputs": [],
      "stateMutability": "nonpayable",
      "type": "function"
    },
    {
      "inputs": [
        {
          "internalType": "bytes4",
          "name": "interfaceId",
          "type": "bytes4"
        }
      ],
      "name": "supportsInterface",
      "outputs": [
        {
          "internalType": "bool",
          "name": "",
          "type": "bool"
        }
      ],
      "stateMutability": "view",
      "type": "function"
    },
    {
      "inputs": [],
      "name": "symbol",
      "outputs": [
        {
          "internalType": "string",
          "name": "",
          "type": "string"
        }
      ],
      "stateMutability": "view",
      "type": "function"
    },
    {
      "inputs": [
        {
          "internalType": "uint256",
          "name": "tokenId",
          "type": "uint256"
        }
      ],
      "name": "tokenURI",
      "outputs": [
        {
          "internalType": "string",
          "name": "",
          "type": "string"
        }
      ],
      "stateMutability": "view",
      "type": "function"
    },
    {
      "inputs": [
        {
          "internalType": "address",
          "name": "from",
          "type": "address"
        },
        {
          "internalType": "address",
          "name": "to",
          "type": "address"
        },
        {
          "internalType": "uint256",
          "name": "tokenId",
          "type": "uint256"
        }
      ],
      "name": "transferFrom",
      "outputs": [],
      "stateMutability": "nonpayable",
      "type": "function"
    },
    {
      "inputs": [
        {
          "internalType": "uint256",
          "name": "_listingPrice",
          "type": "uint256"
        }
      ],
      "name": "updateListingPrice",
      "outputs": [],
      "stateMutability": "payable",
      "type": "function"
    }
  ],
  "bytecode": "0x608060405266071afd498d00006009553480156200001c57600080fd5b506040518060400160405280601381526020017f4e4654204d657461766172736520546f6b656e000000000000000000000000008152506040518060400160405280600581526020017f4d594e465400000000000000000000000000000000000000000000000000000081525081600090816200009a919062000355565b508060019081620000ac919062000355565b5050503373ffffffffffffffffffffffffffffffffffffffff16600a60009054906101000a905050506200043c565b600081519050919050565b7f4e487b7100000000000000000000000000000000000000000000000000000000600052604160045260246000fd5b7f4e487b7100000000000000000000000000000000000000000000000000000000600052602260045260246000fd5b600060028204905060018216806200015d57607f821691505b60208210810362000173576200017262000115565b5b50919050565b60008190508160005260206000209050919050565b60006020601f8301049050919050565b600082821b905092915050565b600060088302620001dd7fffffffffffffffffffffffffffffffffffffffffffffffffffffffffffffffff826200019e565b620001e986836200019e565b95508019841693508086168417925050509392505050565b6000819050919050565b6000819050919050565b600062000236620002306200022a8462000201565b6200020b565b62000201565b9050919050565b6000819050919050565b620002528362000215565b6200026a62000261826200023d565b848454620001ab565b825550505050565b600090565b6200028162000272565b6200028e81848462000247565b505050565b5b81811015620002b657620002aa60008262000277565b60018101905062000294565b5050565b601f8211156200030557620002cf8162000179565b620002da846200018e565b81016020851015620002ea578190505b62000302620002f9856200018e565b83018262000293565b50505b505050565b600082821c905092915050565b60006200032a600019846008026200030a565b1980831691505092915050565b600062000345838362000317565b9150826002028217905092915050565b6200036082620000db565b67ffffffffffffffff8111156200037c576200037b620000e6565b5b62000388825462000144565b62000395828285620002ba565b600060209050601f831160018114620003cd5760008415620003b8578287015190505b620003c4858262000337565b86555062000434565b601f198416620003dd8662000179565b60005b828110156200040757848901518255600182019150602085019450602081019050620003e0565b8683101562000427578489015162000423601f89168262000317565b8355505b6001600288020188555050505b505050505050565b6142a4806200044c6000396000f3fe60806040526004361061012a5760003560e01c806385006bc0116100ab578063b674171a1161006f578063b674171a146103db578063b88d4fde14610406578063be9af5361461042f578063c18763f71461044b578063c87b56dd14610476578063e985e9c5146104b35761012a565b806385006bc01461032457806385535b251461034f57806395d89b411461036b578063a22cb46514610396578063ae677aa3146103bf5761012a565b806342842e0e116100f257806342842e0e1461022657806345f8fa801461024f5780636352211e1461027a57806370a08231146102b757806372b3b620146102f45761012a565b806301ffc9a71461012f57806306fdde031461016c578063081812fc14610197578063095ea7b3146101d457806323b872dd146101fd575b600080fd5b34801561013b57600080fd5b5061015660048036038101906101519190612b68565b6104f0565b6040516101639190612bb0565b60405180910390f35b34801561017857600080fd5b50610181610551565b60405161018e9190612c5b565b60405180910390f35b3480156101a357600080fd5b506101be60048036038101906101b99190612cb3565b6105e3565b6040516101cb9190612d21565b60405180910390f35b3480156101e057600080fd5b506101fb60048036038101906101f69190612d68565b610629565b005b34801561020957600080fd5b50610224600480360381019061021f9190612da8565b610740565b005b34801561023257600080fd5b5061024d60048036038101906102489190612da8565b6107a0565b005b34801561025b57600080fd5b506102646107c0565b6040516102719190612f51565b60405180910390f35b34801561028657600080fd5b506102a1600480360381019061029c9190612cb3565b610a9e565b6040516102ae9190612d21565b60405180910390f35b3480156102c357600080fd5b506102de60048036038101906102d99190612f73565b610b24565b6040516102eb9190612faf565b60405180910390f35b61030e600480360381019061030991906130ff565b610bdb565b60405161031b9190612faf565b60405180910390f35b34801561033057600080fd5b50610339610c1d565b6040516103469190612f51565b60405180910390f35b6103696004803603810190610364919061315b565b610e78565b005b34801561037757600080fd5b5061038061106e565b60405161038d9190612c5b565b60405180910390f35b3480156103a257600080fd5b506103bd60048036038101906103b891906131c7565b611100565b005b6103d960048036038101906103d49190612cb3565b611116565b005b3480156103e757600080fd5b506103f06111b0565b6040516103fd9190612faf565b60405180910390f35b34801561041257600080fd5b5061042d600480360381019061042891906132a8565b6111ba565b005b61044960048036038101906104449190612cb3565b61121c565b005b34801561045757600080fd5b50610460611454565b60405161046d9190612f51565b60405180910390f35b34801561048257600080fd5b5061049d60048036038101906104989190612cb3565b611732565b6040516104aa9190612c5b565b60405180910390f35b3480156104bf57600080fd5b506104da60048036038101906104d5919061332b565b611844565b6040516104e79190612bb0565b60405180910390f35b6000634906490660e01b7bffffffffffffffffffffffffffffffffffffffffffffffffffffffff1916827bffffffffffffffffffffffffffffffffffffffffffffffffffffffff1916148061054a5750610549826118d8565b5b9050919050565b6060600080546105609061339a565b80601f016020809104026020016040519081016040528092919081815260200182805461058c9061339a565b80156105d95780601f106105ae576101008083540402835291602001916105d9565b820191906000526020600020905b8154815290600101906020018083116105bc57829003601f168201915b5050505050905090565b60006105ee826119ba565b6004600083815260200190815260200160002060009054906101000a900473ffffffffffffffffffffffffffffffffffffffff169050919050565b600061063482610a9e565b90508073ffffffffffffffffffffffffffffffffffffffff168373ffffffffffffffffffffffffffffffffffffffff16036106a4576040517f08c379a000000000000000000000000000000000000000000000000000000000815260040161069b9061343d565b60405180910390fd5b8073ffffffffffffffffffffffffffffffffffffffff166106c3611a05565b73ffffffffffffffffffffffffffffffffffffffff1614806106f257506106f1816106ec611a05565b611844565b5b610731576040517f08c379a0000000000000000000000000000000000000000000000000000000008152600401610728906134cf565b60405180910390fd5b61073b8383611a0d565b505050565b61075161074b611a05565b82611ac6565b610790576040517f08c379a000000000000000000000000000000000000000000000000000000000815260040161078790613561565b60405180910390fd5b61079b838383611b5b565b505050565b6107bb838383604051806020016040528060008152506111ba565b505050565b606060006107ce6007611e54565b905060008060005b83811015610875573373ffffffffffffffffffffffffffffffffffffffff16600b600060018461080691906135b0565b815260200190815260200160002060010160009054906101000a900473ffffffffffffffffffffffffffffffffffffffff1673ffffffffffffffffffffffffffffffffffffffff160361086257828061085e906135e4565b9350505b808061086d906135e4565b9150506107d6565b5060008267ffffffffffffffff81111561089257610891612fd4565b5b6040519080825280602002602001820160405280156108cb57816020015b6108b8612a9f565b8152602001906001900390816108b05790505b50905060005b84811015610a93573373ffffffffffffffffffffffffffffffffffffffff16600b600060018461090191906135b0565b815260200190815260200160002060010160009054906101000a900473ffffffffffffffffffffffffffffffffffffffff1673ffffffffffffffffffffffffffffffffffffffff1603610a8057600b600060018361095f91906135b0565b81526020019081526020016000206040518060a0016040529081600082015481526020016001820160009054906101000a900473ffffffffffffffffffffffffffffffffffffffff1673ffffffffffffffffffffffffffffffffffffffff1673ffffffffffffffffffffffffffffffffffffffff1681526020016002820160009054906101000a900473ffffffffffffffffffffffffffffffffffffffff1673ffffffffffffffffffffffffffffffffffffffff1673ffffffffffffffffffffffffffffffffffffffff168152602001600382015481526020016004820160009054906101000a900460ff161515151581525050828481518110610a6657610a6561362c565b5b60200260200101819052508280610a7c906135e4565b9350505b8080610a8b906135e4565b9150506108d1565b508094505050505090565b600080610aaa83611e62565b9050600073ffffffffffffffffffffffffffffffffffffffff168173ffffffffffffffffffffffffffffffffffffffff1603610b1b576040517f08c379a0000000000000000000000000000000000000000000000000000000008152600401610b12906136a7565b60405180910390fd5b80915050919050565b60008073ffffffffffffffffffffffffffffffffffffffff168273ffffffffffffffffffffffffffffffffffffffff1603610b94576040517f08c379a0000000000000000000000000000000000000000000000000000000008152600401610b8b90613739565b60405180910390fd5b600360008373ffffffffffffffffffffffffffffffffffffffff1673ffffffffffffffffffffffffffffffffffffffff168152602001908152602001600020549050919050565b6000610be76007611e9f565b6000610bf36007611e54565b9050610bff3382611eb5565b610c0981856120d2565b610c138184612176565b8091505092915050565b60606000610c2b6007611e54565b90506000610c396008611e54565b610c436007611e54565b610c4d9190613759565b90506000808267ffffffffffffffff811115610c6c57610c6b612fd4565b5b604051908082528060200260200182016040528015610ca557816020015b610c92612a9f565b815260200190600190039081610c8a5790505b50905060005b84811015610e6d573073ffffffffffffffffffffffffffffffffffffffff16600b6000600184610cdb91906135b0565b815260200190815260200160002060020160009054906101000a900473ffffffffffffffffffffffffffffffffffffffff1673ffffffffffffffffffffffffffffffffffffffff1603610e5a57600b6000600183610d3991906135b0565b81526020019081526020016000206040518060a0016040529081600082015481526020016001820160009054906101000a900473ffffffffffffffffffffffffffffffffffffffff1673ffffffffffffffffffffffffffffffffffffffff1673ffffffffffffffffffffffffffffffffffffffff1681526020016002820160009054906101000a900473ffffffffffffffffffffffffffffffffffffffff1673ffffffffffffffffffffffffffffffffffffffff1673ffffffffffffffffffffffffffffffffffffffff168152602001600382015481526020016004820160009054906101000a900460ff161515151581525050828481518110610e4057610e3f61362c565b5b60200260200101819052508280610e56906135e4565b9350505b8080610e65906135e4565b915050610cab565b508094505050505090565b3373ffffffffffffffffffffffffffffffffffffffff16600b600084815260200190815260200160002060020160009054906101000a900473ffffffffffffffffffffffffffffffffffffffff1673ffffffffffffffffffffffffffffffffffffffff1614610f1c576040517f08c379a0000000000000000000000000000000000000000000000000000000008152600401610f13906137ff565b60405180910390fd5b600954341015610f61576040517f08c379a0000000000000000000000000000000000000000000000000000000008152600401610f5890613891565b60405180910390fd5b6000600b600084815260200190815260200160002060040160006101000a81548160ff02191690831515021790555080600b60008481526020019081526020016000206003018190555033600b600084815260200190815260200160002060010160006101000a81548173ffffffffffffffffffffffffffffffffffffffff021916908373ffffffffffffffffffffffffffffffffffffffff16021790555030600b600084815260200190815260200160002060020160006101000a81548173ffffffffffffffffffffffffffffffffffffffff021916908373ffffffffffffffffffffffffffffffffffffffff16021790555061105f600861237a565b61106a333084611b5b565b5050565b60606001805461107d9061339a565b80601f01602080910402602001604051908101604052809291908181526020018280546110a99061339a565b80156110f65780601f106110cb576101008083540402835291602001916110f6565b820191906000526020600020905b8154815290600101906020018083116110d957829003601f168201915b5050505050905090565b61111261110b611a05565b83836123d6565b5050565b600a60009054906101000a900473ffffffffffffffffffffffffffffffffffffffff1673ffffffffffffffffffffffffffffffffffffffff163373ffffffffffffffffffffffffffffffffffffffff16146111a6576040517f08c379a000000000000000000000000000000000000000000000000000000000815260040161119d90613923565b60405180910390fd5b8060098190555050565b6000600954905090565b6111cb6111c5611a05565b83611ac6565b61120a576040517f08c379a000000000000000000000000000000000000000000000000000000000815260040161120190613561565b60405180910390fd5b61121684848484612542565b50505050565b6000600b6000838152602001908152602001600020600301549050803414611279576040517f08c379a0000000000000000000000000000000000000000000000000000000008152600401611270906139b5565b60405180910390fd5b33600b600084815260200190815260200160002060020160006101000a81548173ffffffffffffffffffffffffffffffffffffffff021916908373ffffffffffffffffffffffffffffffffffffffff1602179055506001600b600084815260200190815260200160002060040160006101000a81548160ff0219169083151502179055506000600b600084815260200190815260200160002060020160006101000a81548173ffffffffffffffffffffffffffffffffffffffff021916908373ffffffffffffffffffffffffffffffffffffffff16021790555061135d6008611e9f565b611368303384611b5b565b600a60009054906101000a900473ffffffffffffffffffffffffffffffffffffffff1673ffffffffffffffffffffffffffffffffffffffff166108fc6009549081150290604051600060405180830381858888f193505050501580156113d2573d6000803e3d6000fd5b50600b600083815260200190815260200160002060010160009054906101000a900473ffffffffffffffffffffffffffffffffffffffff1673ffffffffffffffffffffffffffffffffffffffff166108fc349081150290604051600060405180830381858888f1935050505015801561144f573d6000803e3d6000fd5b505050565b606060006114626007611e54565b905060008060005b83811015611509573373ffffffffffffffffffffffffffffffffffffffff16600b600060018461149a91906135b0565b815260200190815260200160002060020160009054906101000a900473ffffffffffffffffffffffffffffffffffffffff1673ffffffffffffffffffffffffffffffffffffffff16036114f65782806114f2906135e4565b9350505b8080611501906135e4565b91505061146a565b5060008267ffffffffffffffff81111561152657611525612fd4565b5b60405190808252806020026020018201604052801561155f57816020015b61154c612a9f565b8152602001906001900390816115445790505b50905060005b84811015611727573373ffffffffffffffffffffffffffffffffffffffff16600b600060018461159591906135b0565b815260200190815260200160002060020160009054906101000a900473ffffffffffffffffffffffffffffffffffffffff1673ffffffffffffffffffffffffffffffffffffffff160361171457600b60006001836115f391906135b0565b81526020019081526020016000206040518060a0016040529081600082015481526020016001820160009054906101000a900473ffffffffffffffffffffffffffffffffffffffff1673ffffffffffffffffffffffffffffffffffffffff1673ffffffffffffffffffffffffffffffffffffffff1681526020016002820160009054906101000a900473ffffffffffffffffffffffffffffffffffffffff1673ffffffffffffffffffffffffffffffffffffffff1673ffffffffffffffffffffffffffffffffffffffff168152602001600382015481526020016004820160009054906101000a900460ff1615151515815250508284815181106116fa576116f961362c565b5b60200260200101819052508280611710906135e4565b9350505b808061171f906135e4565b915050611565565b508094505050505090565b606061173d826119ba565b600060066000848152602001908152602001600020805461175d9061339a565b80601f01602080910402602001604051908101604052809291908181526020018280546117899061339a565b80156117d65780601f106117ab576101008083540402835291602001916117d6565b820191906000526020600020905b8154815290600101906020018083116117b957829003601f168201915b5050505050905060006117e761259e565b905060008151036117fc57819250505061183f565b600082511115611831578082604051602001611819929190613a11565b6040516020818303038152906040529250505061183f565b61183a846125b5565b925050505b919050565b6000600560008473ffffffffffffffffffffffffffffffffffffffff1673ffffffffffffffffffffffffffffffffffffffff16815260200190815260200160002060008373ffffffffffffffffffffffffffffffffffffffff1673ffffffffffffffffffffffffffffffffffffffff16815260200190815260200160002060009054906101000a900460ff16905092915050565b60007f80ac58cd000000000000000000000000000000000000000000000000000000007bffffffffffffffffffffffffffffffffffffffffffffffffffffffff1916827bffffffffffffffffffffffffffffffffffffffffffffffffffffffff191614806119a357507f5b5e139f000000000000000000000000000000000000000000000000000000007bffffffffffffffffffffffffffffffffffffffffffffffffffffffff1916827bffffffffffffffffffffffffffffffffffffffffffffffffffffffff1916145b806119b357506119b28261261d565b5b9050919050565b6119c381612687565b611a02576040517f08c379a00000000000000000000000000000000000000000000000000000000081526004016119f9906136a7565b60405180910390fd5b50565b600033905090565b816004600083815260200190815260200160002060006101000a81548173ffffffffffffffffffffffffffffffffffffffff021916908373ffffffffffffffffffffffffffffffffffffffff160217905550808273ffffffffffffffffffffffffffffffffffffffff16611a8083610a9e565b73ffffffffffffffffffffffffffffffffffffffff167f8c5be1e5ebec7d5bd14f71427d1e84f3dd0314c0f7b2291e5b200ac8c7c3b92560405160405180910390a45050565b600080611ad283610a9e565b90508073ffffffffffffffffffffffffffffffffffffffff168473ffffffffffffffffffffffffffffffffffffffff161480611b145750611b138185611844565b5b80611b5257508373ffffffffffffffffffffffffffffffffffffffff16611b3a846105e3565b73ffffffffffffffffffffffffffffffffffffffff16145b91505092915050565b8273ffffffffffffffffffffffffffffffffffffffff16611b7b82610a9e565b73ffffffffffffffffffffffffffffffffffffffff1614611bd1576040517f08c379a0000000000000000000000000000000000000000000000000000000008152600401611bc890613aa7565b60405180910390fd5b600073ffffffffffffffffffffffffffffffffffffffff168273ffffffffffffffffffffffffffffffffffffffff1603611c40576040517f08c379a0000000000000000000000000000000000000000000000000000000008152600401611c3790613b39565b60405180910390fd5b611c4d83838360016126c8565b8273ffffffffffffffffffffffffffffffffffffffff16611c6d82610a9e565b73ffffffffffffffffffffffffffffffffffffffff1614611cc3576040517f08c379a0000000000000000000000000000000000000000000000000000000008152600401611cba90613aa7565b60405180910390fd5b6004600082815260200190815260200160002060006101000a81549073ffffffffffffffffffffffffffffffffffffffff02191690556001600360008573ffffffffffffffffffffffffffffffffffffffff1673ffffffffffffffffffffffffffffffffffffffff168152602001908152602001600020600082825403925050819055506001600360008473ffffffffffffffffffffffffffffffffffffffff1673ffffffffffffffffffffffffffffffffffffffff16815260200190815260200160002060008282540192505081905550816002600083815260200190815260200160002060006101000a81548173ffffffffffffffffffffffffffffffffffffffff021916908373ffffffffffffffffffffffffffffffffffffffff160217905550808273ffffffffffffffffffffffffffffffffffffffff168473ffffffffffffffffffffffffffffffffffffffff167fddf252ad1be2c89b69c2b068fc378daa952ba7f163c4a11628f55a4df523b3ef60405160405180910390a4611e4f83838360016126ce565b505050565b600081600001549050919050565b60006002600083815260200190815260200160002060009054906101000a900473ffffffffffffffffffffffffffffffffffffffff169050919050565b6001816000016000828254019250508190555050565b600073ffffffffffffffffffffffffffffffffffffffff168273ffffffffffffffffffffffffffffffffffffffff1603611f24576040517f08c379a0000000000000000000000000000000000000000000000000000000008152600401611f1b90613ba5565b60405180910390fd5b611f2d81612687565b15611f6d576040517f08c379a0000000000000000000000000000000000000000000000000000000008152600401611f6490613c11565b60405180910390fd5b611f7b6000838360016126c8565b611f8481612687565b15611fc4576040517f08c379a0000000000000000000000000000000000000000000000000000000008152600401611fbb90613c11565b60405180910390fd5b6001600360008473ffffffffffffffffffffffffffffffffffffffff1673ffffffffffffffffffffffffffffffffffffffff16815260200190815260200160002060008282540192505081905550816002600083815260200190815260200160002060006101000a81548173ffffffffffffffffffffffffffffffffffffffff021916908373ffffffffffffffffffffffffffffffffffffffff160217905550808273ffffffffffffffffffffffffffffffffffffffff16600073ffffffffffffffffffffffffffffffffffffffff167fddf252ad1be2c89b69c2b068fc378daa952ba7f163c4a11628f55a4df523b3ef60405160405180910390a46120ce6000838360016126ce565b5050565b6120db82612687565b61211a576040517f08c379a000000000000000000000000000000000000000000000000000000000815260040161211190613ca3565b60405180910390fd5b8060066000848152602001908152602001600020908161213a9190613e6f565b507ff8e1a15aba9398e019f0b49df1a4fde98ee17ae345cb5f6b5e2c27f5033e8ce78260405161216a9190612faf565b60405180910390a15050565b600081116121b9576040517f08c379a00000000000000000000000000000000000000000000000000000000081526004016121b090613f8d565b60405180910390fd5b6009543410156121fe576040517f08c379a00000000000000000000000000000000000000000000000000000000081526004016121f590613891565b60405180910390fd5b6040518060a001604052808381526020013373ffffffffffffffffffffffffffffffffffffffff1681526020013073ffffffffffffffffffffffffffffffffffffffff16815260200182815260200160001515815250600b60008481526020019081526020016000206000820151816000015560208201518160010160006101000a81548173ffffffffffffffffffffffffffffffffffffffff021916908373ffffffffffffffffffffffffffffffffffffffff16021790555060408201518160020160006101000a81548173ffffffffffffffffffffffffffffffffffffffff021916908373ffffffffffffffffffffffffffffffffffffffff1602179055506060820151816003015560808201518160040160006101000a81548160ff021916908315150217905550905050612337333084611b5b565b817fdebdb32cb5230ab727c9c361b16fdb2015df225c10e6a3e7f60ecd5dc5be4516333084600060405161236e9493929190613fad565b60405180910390a25050565b600081600001549050600081116123c6576040517f08c379a00000000000000000000000000000000000000000000000000000000081526004016123bd9061403e565b60405180910390fd5b6001810382600001819055505050565b8173ffffffffffffffffffffffffffffffffffffffff168373ffffffffffffffffffffffffffffffffffffffff1603612444576040517f08c379a000000000000000000000000000000000000000000000000000000000815260040161243b906140aa565b60405180910390fd5b80600560008573ffffffffffffffffffffffffffffffffffffffff1673ffffffffffffffffffffffffffffffffffffffff16815260200190815260200160002060008473ffffffffffffffffffffffffffffffffffffffff1673ffffffffffffffffffffffffffffffffffffffff16815260200190815260200160002060006101000a81548160ff0219169083151502179055508173ffffffffffffffffffffffffffffffffffffffff168373ffffffffffffffffffffffffffffffffffffffff167f17307eab39ab6107e8899845ad3d59bd9653f200f220920489ca2b5937696c31836040516125359190612bb0565b60405180910390a3505050565b61254d848484611b5b565b612559848484846126d4565b612598576040517f08c379a000000000000000000000000000000000000000000000000000000000815260040161258f9061413c565b60405180910390fd5b50505050565b606060405180602001604052806000815250905090565b60606125c0826119ba565b60006125ca61259e565b905060008151116125ea5760405180602001604052806000815250612615565b806125f48461285b565b604051602001612605929190613a11565b6040516020818303038152906040525b915050919050565b60007f01ffc9a7000000000000000000000000000000000000000000000000000000007bffffffffffffffffffffffffffffffffffffffffffffffffffffffff1916827bffffffffffffffffffffffffffffffffffffffffffffffffffffffff1916149050919050565b60008073ffffffffffffffffffffffffffffffffffffffff166126a983611e62565b73ffffffffffffffffffffffffffffffffffffffff1614159050919050565b50505050565b50505050565b60006126f58473ffffffffffffffffffffffffffffffffffffffff16612929565b1561284e578373ffffffffffffffffffffffffffffffffffffffff1663150b7a0261271e611a05565b8786866040518563ffffffff1660e01b815260040161274094939291906141b1565b6020604051808303816000875af192505050801561277c57506040513d601f19601f820116820180604052508101906127799190614212565b60015b6127fe573d80600081146127ac576040519150601f19603f3d011682016040523d82523d6000602084013e6127b1565b606091505b5060008151036127f6576040517f08c379a00000000000000000000000000000000000000000000000000000000081526004016127ed9061413c565b60405180910390fd5b805181602001fd5b63150b7a0260e01b7bffffffffffffffffffffffffffffffffffffffffffffffffffffffff1916817bffffffffffffffffffffffffffffffffffffffffffffffffffffffff191614915050612853565b600190505b949350505050565b60606000600161286a8461294c565b01905060008167ffffffffffffffff81111561288957612888612fd4565b5b6040519080825280601f01601f1916602001820160405280156128bb5781602001600182028036833780820191505090505b509050600082602001820190505b60011561291e578080600190039150507f3031323334353637383961626364656600000000000000000000000000000000600a86061a8153600a85816129125761291161423f565b5b049450600085036128c9575b819350505050919050565b6000808273ffffffffffffffffffffffffffffffffffffffff163b119050919050565b600080600090507a184f03e93ff9f4daa797ed6e38ed64bf6a1f01000000000000000083106129aa577a184f03e93ff9f4daa797ed6e38ed64bf6a1f01000000000000000083816129a05761299f61423f565b5b0492506040810190505b6d04ee2d6d415b85acef810000000083106129e7576d04ee2d6d415b85acef810000000083816129dd576129dc61423f565b5b0492506020810190505b662386f26fc100008310612a1657662386f26fc100008381612a0c57612a0b61423f565b5b0492506010810190505b6305f5e1008310612a3f576305f5e1008381612a3557612a3461423f565b5b0492506008810190505b6127108310612a64576127108381612a5a57612a5961423f565b5b0492506004810190505b60648310612a875760648381612a7d57612a7c61423f565b5b0492506002810190505b600a8310612a96576001810190505b80915050919050565b6040518060a0016040528060008152602001600073ffffffffffffffffffffffffffffffffffffffff168152602001600073ffffffffffffffffffffffffffffffffffffffff168152602001600081526020016000151581525090565b6000604051905090565b600080fd5b600080fd5b60007fffffffff0000000000000000000000000000000000000000000000000000000082169050919050565b612b4581612b10565b8114612b5057600080fd5b50565b600081359050612b6281612b3c565b92915050565b600060208284031215612b7e57612b7d612b06565b5b6000612b8c84828501612b53565b91505092915050565b60008115159050919050565b612baa81612b95565b82525050565b6000602082019050612bc56000830184612ba1565b92915050565b600081519050919050565b600082825260208201905092915050565b60005b83811015612c05578082015181840152602081019050612bea565b60008484015250505050565b6000601f19601f8301169050919050565b6000612c2d82612bcb565b612c378185612bd6565b9350612c47818560208601612be7565b612c5081612c11565b840191505092915050565b60006020820190508181036000830152612c758184612c22565b905092915050565b6000819050919050565b612c9081612c7d565b8114612c9b57600080fd5b50565b600081359050612cad81612c87565b92915050565b600060208284031215612cc957612cc8612b06565b5b6000612cd784828501612c9e565b91505092915050565b600073ffffffffffffffffffffffffffffffffffffffff82169050919050565b6000612d0b82612ce0565b9050919050565b612d1b81612d00565b82525050565b6000602082019050612d366000830184612d12565b92915050565b612d4581612d00565b8114612d5057600080fd5b50565b600081359050612d6281612d3c565b92915050565b60008060408385031215612d7f57612d7e612b06565b5b6000612d8d85828601612d53565b9250506020612d9e85828601612c9e565b9150509250929050565b600080600060608486031215612dc157612dc0612b06565b5b6000612dcf86828701612d53565b9350506020612de086828701612d53565b9250506040612df186828701612c9e565b9150509250925092565b600081519050919050565b600082825260208201905092915050565b6000819050602082019050919050565b612e3081612c7d565b82525050565b6000612e4182612ce0565b9050919050565b612e5181612e36565b82525050565b612e6081612b95565b82525050565b60a082016000820151612e7c6000850182612e27565b506020820151612e8f6020850182612e48565b506040820151612ea26040850182612e48565b506060820151612eb56060850182612e27565b506080820151612ec86080850182612e57565b50505050565b6000612eda8383612e66565b60a08301905092915050565b6000602082019050919050565b6000612efe82612dfb565b612f088185612e06565b9350612f1383612e17565b8060005b83811015612f44578151612f2b8882612ece565b9750612f3683612ee6565b925050600181019050612f17565b5085935050505092915050565b60006020820190508181036000830152612f6b8184612ef3565b905092915050565b600060208284031215612f8957612f88612b06565b5b6000612f9784828501612d53565b91505092915050565b612fa981612c7d565b82525050565b6000602082019050612fc46000830184612fa0565b92915050565b600080fd5b600080fd5b7f4e487b7100000000000000000000000000000000000000000000000000000000600052604160045260246000fd5b61300c82612c11565b810181811067ffffffffffffffff8211171561302b5761302a612fd4565b5b80604052505050565b600061303e612afc565b905061304a8282613003565b919050565b600067ffffffffffffffff82111561306a57613069612fd4565b5b61307382612c11565b9050602081019050919050565b82818337600083830152505050565b60006130a261309d8461304f565b613034565b9050828152602081018484840111156130be576130bd612fcf565b5b6130c9848285613080565b509392505050565b600082601f8301126130e6576130e5612fca565b5b81356130f684826020860161308f565b91505092915050565b6000806040838503121561311657613115612b06565b5b600083013567ffffffffffffffff81111561313457613133612b0b565b5b613140858286016130d1565b925050602061315185828601612c9e565b9150509250929050565b6000806040838503121561317257613171612b06565b5b600061318085828601612c9e565b925050602061319185828601612c9e565b9150509250929050565b6131a481612b95565b81146131af57600080fd5b50565b6000813590506131c18161319b565b92915050565b600080604083850312156131de576131dd612b06565b5b60006131ec85828601612d53565b92505060206131fd858286016131b2565b9150509250929050565b600067ffffffffffffffff82111561322257613221612fd4565b5b61322b82612c11565b9050602081019050919050565b600061324b61324684613207565b613034565b90508281526020810184848401111561326757613266612fcf565b5b613272848285613080565b509392505050565b600082601f83011261328f5761328e612fca565b5b813561329f848260208601613238565b91505092915050565b600080600080608085870312156132c2576132c1612b06565b5b60006132d087828801612d53565b94505060206132e187828801612d53565b93505060406132f287828801612c9e565b925050606085013567ffffffffffffffff81111561331357613312612b0b565b5b61331f8782880161327a565b91505092959194509250565b6000806040838503121561334257613341612b06565b5b600061335085828601612d53565b925050602061336185828601612d53565b9150509250929050565b7f4e487b7100000000000000000000000000000000000000000000000000000000600052602260045260246000fd5b600060028204905060018216806133b257607f821691505b6020821081036133c5576133c461336b565b5b50919050565b7f4552433732313a20617070726f76616c20746f2063757272656e74206f776e6560008201527f7200000000000000000000000000000000000000000000000000000000000000602082015250565b6000613427602183612bd6565b9150613432826133cb565b604082019050919050565b600060208201905081810360008301526134568161341a565b9050919050565b7f4552433732313a20617070726f76652063616c6c6572206973206e6f7420746f60008201527f6b656e206f776e6572206f7220617070726f76656420666f7220616c6c000000602082015250565b60006134b9603d83612bd6565b91506134c48261345d565b604082019050919050565b600060208201905081810360008301526134e8816134ac565b9050919050565b7f4552433732313a2063616c6c6572206973206e6f7420746f6b656e206f776e6560008201527f72206f7220617070726f76656400000000000000000000000000000000000000602082015250565b600061354b602d83612bd6565b9150613556826134ef565b604082019050919050565b6000602082019050818103600083015261357a8161353e565b9050919050565b7f4e487b7100000000000000000000000000000000000000000000000000000000600052601160045260246000fd5b60006135bb82612c7d565b91506135c683612c7d565b92508282019050808211156135de576135dd613581565b5b92915050565b60006135ef82612c7d565b91507fffffffffffffffffffffffffffffffffffffffffffffffffffffffffffffffff820361362157613620613581565b5b600182019050919050565b7f4e487b7100000000000000000000000000000000000000000000000000000000600052603260045260246000fd5b7f4552433732313a20696e76616c696420746f6b656e2049440000000000000000600082015250565b6000613691601883612bd6565b915061369c8261365b565b602082019050919050565b600060208201905081810360008301526136c081613684565b9050919050565b7f4552433732313a2061646472657373207a65726f206973206e6f74206120766160008201527f6c6964206f776e65720000000000000000000000000000000000000000000000602082015250565b6000613723602983612bd6565b915061372e826136c7565b604082019050919050565b6000602082019050818103600083015261375281613716565b9050919050565b600061376482612c7d565b915061376f83612c7d565b925082820390508181111561378757613786613581565b5b92915050565b7f4f6e6c79206974656d206f776e65722063616e20726573616c6520746865204e60008201527f4654000000000000000000000000000000000000000000000000000000000000602082015250565b60006137e9602283612bd6565b91506137f48261378d565b604082019050919050565b60006020820190508181036000830152613818816137dc565b9050919050565b7f5072696365206d7573742062652067726561746572207468656e206f7220657160008201527f75616c20746f206c697374696e67207072696365000000000000000000000000602082015250565b600061387b603483612bd6565b91506138868261381f565b604082019050919050565b600060208201905081810360008301526138aa8161386e565b9050919050565b7f4f6e6c79206f776e6572206f6620746865204d61726b6574506c61636520636160008201527f6e206368616e676520746865206c697369746e67207072696365000000000000602082015250565b600061390d603a83612bd6565b9150613918826138b1565b604082019050919050565b6000602082019050818103600083015261393c81613900565b9050919050565b7f506c65617365207375626d6974207468652061736b696e67207072696365206960008201527f6e206f7264657220746f20636f6d706c65746520746865207075726368617365602082015250565b600061399f604083612bd6565b91506139aa82613943565b604082019050919050565b600060208201905081810360008301526139ce81613992565b9050919050565b600081905092915050565b60006139eb82612bcb565b6139f581856139d5565b9350613a05818560208601612be7565b80840191505092915050565b6000613a1d82856139e0565b9150613a2982846139e0565b91508190509392505050565b7f4552433732313a207472616e736665722066726f6d20696e636f72726563742060008201527f6f776e6572000000000000000000000000000000000000000000000000000000602082015250565b6000613a91602583612bd6565b9150613a9c82613a35565b604082019050919050565b60006020820190508181036000830152613ac081613a84565b9050919050565b7f4552433732313a207472616e7366657220746f20746865207a65726f2061646460008201527f7265737300000000000000000000000000000000000000000000000000000000602082015250565b6000613b23602483612bd6565b9150613b2e82613ac7565b604082019050919050565b60006020820190508181036000830152613b5281613b16565b9050919050565b7f4552433732313a206d696e7420746f20746865207a65726f2061646472657373600082015250565b6000613b8f602083612bd6565b9150613b9a82613b59565b602082019050919050565b60006020820190508181036000830152613bbe81613b82565b9050919050565b7f4552433732313a20746f6b656e20616c7265616479206d696e74656400000000600082015250565b6000613bfb601c83612bd6565b9150613c0682613bc5565b602082019050919050565b60006020820190508181036000830152613c2a81613bee565b9050919050565b7f45524337323155524953746f726167653a2055524920736574206f66206e6f6e60008201527f6578697374656e7420746f6b656e000000000000000000000000000000000000602082015250565b6000613c8d602e83612bd6565b9150613c9882613c31565b604082019050919050565b60006020820190508181036000830152613cbc81613c80565b9050919050565b60008190508160005260206000209050919050565b60006020601f8301049050919050565b600082821b905092915050565b600060088302613d257fffffffffffffffffffffffffffffffffffffffffffffffffffffffffffffffff82613ce8565b613d2f8683613ce8565b95508019841693508086168417925050509392505050565b6000819050919050565b6000613d6c613d67613d6284612c7d565b613d47565b612c7d565b9050919050565b6000819050919050565b613d8683613d51565b613d9a613d9282613d73565b848454613cf5565b825550505050565b600090565b613daf613da2565b613dba818484613d7d565b505050565b5b81811015613dde57613dd3600082613da7565b600181019050613dc0565b5050565b601f821115613e2357613df481613cc3565b613dfd84613cd8565b81016020851015613e0c578190505b613e20613e1885613cd8565b830182613dbf565b50505b505050565b600082821c905092915050565b6000613e4660001984600802613e28565b1980831691505092915050565b6000613e5f8383613e35565b9150826002028217905092915050565b613e7882612bcb565b67ffffffffffffffff811115613e9157613e90612fd4565b5b613e9b825461339a565b613ea6828285613de2565b600060209050601f831160018114613ed95760008415613ec7578287015190505b613ed18582613e53565b865550613f39565b601f198416613ee786613cc3565b60005b82811015613f0f57848901518255600182019150602085019450602081019050613eea565b86831015613f2c5784890151613f28601f891682613e35565b8355505b6001600288020188555050505b505050505050565b7f5072696365206d7573742062652061746c656174203100000000000000000000600082015250565b6000613f77601683612bd6565b9150613f8282613f41565b602082019050919050565b60006020820190508181036000830152613fa681613f6a565b9050919050565b6000608082019050613fc26000830187612d12565b613fcf6020830186612d12565b613fdc6040830185612fa0565b613fe96060830184612ba1565b95945050505050565b7f436f756e7465723a2064656372656d656e74206f766572666c6f770000000000600082015250565b6000614028601b83612bd6565b915061403382613ff2565b602082019050919050565b600060208201905081810360008301526140578161401b565b9050919050565b7f4552433732313a20617070726f766520746f2063616c6c657200000000000000600082015250565b6000614094601983612bd6565b915061409f8261405e565b602082019050919050565b600060208201905081810360008301526140c381614087565b9050919050565b7f4552433732313a207472616e7366657220746f206e6f6e20455243373231526560008201527f63656976657220696d706c656d656e7465720000000000000000000000000000602082015250565b6000614126603283612bd6565b9150614131826140ca565b604082019050919050565b6000602082019050818103600083015261415581614119565b9050919050565b600081519050919050565b600082825260208201905092915050565b60006141838261415c565b61418d8185614167565b935061419d818560208601612be7565b6141a681612c11565b840191505092915050565b60006080820190506141c66000830187612d12565b6141d36020830186612d12565b6141e06040830185612fa0565b81810360608301526141f28184614178565b905095945050505050565b60008151905061420c81612b3c565b92915050565b60006020828403121561422857614227612b06565b5b6000614236848285016141fd565b91505092915050565b7f4e487b7100000000000000000000000000000000000000000000000000000000600052601260045260246000fdfea26469706673582212205bbf26336deadf2fc875f8c7d453171f990d55df6016912f25be5e8357af8ad764736f6c63430008130033",
  "linkReferences": {},
  "deployedLinkReferences": {}
}